{
  "_format": "hh-sol-artifact-1",
  "contractName": "Wallet",
  "sourceName": "contracts/Wallet.sol",
  "abi": [
    {
      "inputs": [],
      "name": "getBalance",
      "outputs": [
        {
          "internalType": "uint256",
          "name": "",
          "type": "uint256"
        }
      ],
      "stateMutability": "view",
      "type": "function"
    },
    {
      "inputs": [
        {
          "internalType": "address payable",
          "name": "_to",
          "type": "address"
        },
        {
          "internalType": "uint256",
          "name": "_amount",
          "type": "uint256"
        }
      ],
      "name": "withdrawMoney",
      "outputs": [],
      "stateMutability": "nonpayable",
      "type": "function"
    },
    {
      "stateMutability": "payable",
      "type": "receive"
    }
  ],
  "bytecode": "0x608060405234801561001057600080fd5b50610495806100206000396000f3fe60806040526004361061002d5760003560e01c806312065fe01461008d578063f274c897146100b857610088565b3661008857346000803373ffffffffffffffffffffffffffffffffffffffff1673ffffffffffffffffffffffffffffffffffffffff16815260200190815260200160002060008282546100809190610281565b925050819055005b600080fd5b34801561009957600080fd5b506100a26100e1565b6040516100af91906102c4565b60405180910390f35b3480156100c457600080fd5b506100df60048036038101906100da919061036e565b610127565b005b60008060003373ffffffffffffffffffffffffffffffffffffffff1673ffffffffffffffffffffffffffffffffffffffff16815260200190815260200160002054905090565b6000803373ffffffffffffffffffffffffffffffffffffffff1673ffffffffffffffffffffffffffffffffffffffff168152602001908152602001600020548111156101a8576040517f08c379a000000000000000000000000000000000000000000000000000000000815260040161019f9061040b565b60405180910390fd5b8173ffffffffffffffffffffffffffffffffffffffff166108fc829081150290604051600060405180830381858888f193505050501580156101ee573d6000803e3d6000fd5b50806000803373ffffffffffffffffffffffffffffffffffffffff1673ffffffffffffffffffffffffffffffffffffffff168152602001908152602001600020600082825461023d919061042b565b925050819055505050565b6000819050919050565b7f4e487b7100000000000000000000000000000000000000000000000000000000600052601160045260246000fd5b600061028c82610248565b915061029783610248565b92508282019050808211156102af576102ae610252565b5b92915050565b6102be81610248565b82525050565b60006020820190506102d960008301846102b5565b92915050565b600080fd5b600073ffffffffffffffffffffffffffffffffffffffff82169050919050565b600061030f826102e4565b9050919050565b61031f81610304565b811461032a57600080fd5b50565b60008135905061033c81610316565b92915050565b61034b81610248565b811461035657600080fd5b50565b60008135905061036881610342565b92915050565b60008060408385031215610385576103846102df565b5b60006103938582860161032d565b92505060206103a485828601610359565b9150509250929050565b600082825260208201905092915050565b7f4e6f7420656e61756768206d6f6e65657920746f2073656e6400000000000000600082015250565b60006103f56019836103ae565b9150610400826103bf565b602082019050919050565b60006020820190508181036000830152610424816103e8565b9050919050565b600061043682610248565b915061044183610248565b925082820390508181111561045957610458610252565b5b9291505056fea264697066735822122098e3d459992bff8dee76b2bf4fa0746fceb8c4312b75d1d9d998de946bda419864736f6c63430008110033",
  "linkReferences": {},
  "deployedLinkReferences": {}
}